:020000040800F2
:10000000000002209906000895060008155B00080C
:1000100095060008950600089506000800000000F7
:10002000000000000000000000000000950600082D
:10003000950600080000000095060008995A00087F
:100040009506000895060008950600089506000824
:100050009506000895060008950600089506000814
:10006000950600089506000895060008E146000878
:10007000ED46000845340008F94600080547000829
:1000800061550008113C0008950600089506000817
:1000900095060008950600089506000895060008D4
:1000A00095060008950600089506000895060008C4
:1000B000A51F0108B11F0108BD1F0108453C00082C
:1000C00095060008513C000895060008151801081F
:1000D0002118010895530008C1530008F553000882
:1000E0009506000895060008000000009506000827
:1000F0009506000895060008950600089506000874
:100100009506000895060008C91F01082D1801086A
:10011000295400085D54000895060008950600085B
:100120009506000895060008511801088518010871
:1001300095550008950600089506000895060008E4
:1001400000000000000000000000000000000000AF
:1001500095060008950600089506000891540008C9
:100160005D3C000895060008A95A0008CD5A000811
:1001700095060008F15A0008950600089506000843
:100180009506000895060008C5540008F9540008B3
:100190003918010845180108950600089506000859
:1001A00095060008950600089506000895060008C3
:1001B0000144000895060008950600089506000809
:1001C0009506000895060008052F0008112F000865
:1001D000950600081D2F00089506000895060008E2
:1001E0009506000895060008950600089506000883
:1001F0009506000895060008950600089506000873
:100200009506000895060008950600089506000862
:100210009506000895060008950600089506000852
:1002200095060008950600089506000800000000E5
:1002300095060008950600080000000095060008D5
:100240009506000895060008950600089506000822
:100250009506000895060008950600089506000812
:100260009506000895060008950600089506000802
:1002700095060008950600082D55000800000000AE
:100280009506000895060008950600080000000085
:080290000000000095060008C3
:1002A00010B5054C237833B9044B13B10448AFF3B0
:1002B00000800123237010BD780700240000000097
:1002C000F467010808B5034B1BB103490348AFF3BA
:1002D000008008BD000000007C070024F4670108CE
:1002E000034613F8012B002AFBD1181A0138704776
:1002F00001F0FF01102A2BDB10F0070F08D010F8D7
:10030000013B013A8B422DD010F0070F42B3F6D1DA
:10031000F0B441EA012141EA014122F007047FF0F3
:1003200000070023F0E80256083C85EA010586EA4A
:10033000010685FA47F5A3FA87F586FA47F6A5FA86
:1003400087F68EB9EED1F0BC01F0FF0102F0070292
:1003500032B110F8013B013A83EA010313B1F8D13D
:100360000020704701387047002D06BF354603381E
:10037000073815F0010F07D1013015F4807F02BF57
:10038000013015F4C03F0130F0BC0138704700BFA8
:1003900053B94AB9002908BF00281CBF4FF0FF31EC
:1003A0004FF0FF3000F074B9ADF1080C6DE904CEE8
:1003B00000F006F8DDF804E0DDE9022304B0704740
:1003C0002DE9F047089D04468E46002B4DD18A4208
:1003D000944669D9B2FA82F252B101FA02F3C2F13B
:1003E000200120FA01F10CFA02FC41EA030E9440CC
:1003F0004FEA1C48210CBEFBF8F61FFA8CF708FBED
:1004000016E341EA034306FB07F199420AD91CEBC4
:10041000030306F1FF3080F01F81994240F21C81F6
:10042000023E63445B1AA4B2B3FBF8F008FB10333E
:1004300044EA034400FB07F7A7420AD91CEB040473
:1004400000F1FF3380F00A81A74240F20781644443
:10045000023840EA0640E41B00261DB1D4400023C8
:10046000C5E900433146BDE8F0878B4209D9002D2C
:1004700000F0EF800026C5E9000130463146BDE8B6
:10048000F087B3FA83F6002E4AD18B4202D3824220
:1004900000F2F980841A61EB030301209E46002DCF
:1004A000E0D0C5E9004EDDE702B9FFDEB2FA82F224
:1004B000002A40F09280A1EB0C014FEA1C471FFA82
:1004C0008CFE0126200CB1FBF7F307FB131140EA69
:1004D00001410EFB03F0884208D91CEB010103F136
:1004E000FF3802D2884200F2CB804346091AA4B2F8
:1004F000B1FBF7F007FB101144EA01440EFB00FECC
:10050000A64508D91CEB040400F1FF3102D2A64530
:1005100000F2BB800846A4EB0E0440EA03409CE7CF
:10052000C6F12007B34022FA07FC4CEA030C20FA7C
:1005300007F401FA06F31C43F9404FEA1C4900FA9C
:1005400006F3B1FBF9F8200C1FFA8CFE09FB181119
:1005500040EA014108FB0EF0884202FA06F20BD98C
:100560001CEB010108F1FF3A80F08880884240F2DC
:100570008580A8F102086144091AA4B2B1FBF9F020
:1005800009FB101144EA014100FB0EFE8E4508D91B
:100590001CEB010100F1FF346CD28E456AD90238A0
:1005A000614440EA0840A0FB0294A1EB0E01A14285
:1005B000C846A64656D353D05DB1B3EB080261EBF3
:1005C0000E0101FA07F722FA06F3F1401F43C5E9CD
:1005D000007100263146BDE8F087C2F12003D84003
:1005E0000CFA02FC21FA03F3914001434FEA1C4745
:1005F0001FFA8CFEB3FBF7F007FB10360B0C43EA37
:10060000064300FB0EF69E4204FA02F408D91CEBE6
:10061000030300F1FF382FD29E422DD902386344E4
:100620009B1B89B2B3FBF7F607FB163341EA034184
:1006300006FB0EF38B4208D91CEB010106F1FF38D3
:1006400016D28B4214D9023E6144C91A46EA0046CA
:1006500038E72E46284605E70646E3E61846F8E65C
:100660004B45A9D2B9EB020864EB0C0E0138A3E7A5
:100670004646EAE7204694E74046D1E7D0467BE786
:10068000023B614432E7304609E76444023842E7FE
:10069000704700BFFEE700BF0B480C4A904203D0F2
:1006A000121A0B4912F0D2FD0A480B4A904203D0AD
:1006B000121A002112F0D8FD05F08AFC12F092FD0A
:1006C00000F062F8FEE700BF000000247807002475
:1006D000286801087807002454F40124704700BFFB
:1006E0002DE9F047DFF89CA0164686B08046894683
:1006F00005F082FACAF8000096B3D8F80030002559
:1007000003EB85031C48AC00013593ED000A00F0B3
:1007100023FAD8F80430194823448DED000ACDEDB2
:10072000010A93ED000A8DED021A00F015FAD8F8CF
:100730000030AE42D9F80020D8F8041003EB0400D2
:100740002244D9F80470214400683C448DED030A2A
:1007500010600A68CDED040A8DED051A2260CFD134
:1007600005F04AFADAF80020054B801A00EB800009
:10077000186006B0BDE8F087D40700241488002470
:1007800054080124389B012438B54BF680311F48AA
:1007900000F02EFA01211D48002400F0DBF94BF691
:1007A00080311B4800F024FA0121194800F0D2F9E9
:1007B0002146184800F082FD204602F02DFA08215B
:1007C000144800F08FFC0321124800F0A1FC1248ED
:1007D00000F08CF80F4800F0B1FC10490D48104DA6
:1007E00000F07EFC0C4800F007F90E4B4AF2C5728F
:1007F0009FED0D0A04FB03F307480134B2EB731FAE
:10080000F0D3296800F08AF8ECE700BFD407002491
:10081000148800245808012494070024E1060008E5
:10082000540801241DE6CB0BABC222482DE9F04150
:10083000214C0025214E04F5C070256065612562BC
:10084000E56302F01FFA40F20F7304F514711C4ABD
:100850002046A4F83C3240F201131A4FC4F8382263
:100860003246C4F89051C4F84852C4F84C52164D60
:10087000DFF86480C4E99013144912F079FC38461B
:1008800000F02AF932461249384612F071FC284627
:1008900000F022F932460E49284612F069FC39462A
:1008A0002A462346404600F019F832464046094998
:1008B000BDE8F04112F05CBC58080124000000249F
:1008C0000080707FD407002414880024DD0600080F
:1008D000D50B0008E90800089407002401600121F5
:1008E000C0E9012381817047704700BF10B50446FD
:1008F0000121103006F03EF804F11C00022106F040
:1009000039F804F12800032106F034F804F134002A
:100910000721BDE8104006F02DB800BF10B5044611
:1009200088B0006800F004F9607B1849184A237BFE
:10093000002818BF11468DED050ACDED060A8DED94
:10094000071AEBB9DDED077AF5EE407AF1EE10FA11
:1009500010D09DED067ADDED056AB7EEC77A0D4839
:10096000B7EEE66A8DED007B53EC162B02F046F9EC
:1009700008B010BD084808B0BDE8104002F03EB90C
:100980000648039102F03AF90399DBE73060010869
:10099000346001085C600108846001083860010867
:1009A00030B50446806885B0627B00F1D803EAB9AF
:1009B00004F1100201AD07CA85E807001846294670
:1009C00002F0A2F9A068227B00F596738AB104F1C7
:1009D000340207CA85E807001846294602F094F950
:1009E000A06805B0BDE8304000F0C8BB04F11C02AF
:1009F000E0E704F12802ECE730B5044683B08068F4
:100A0000019000F09FFB019800F0A8FBA36893F809
:100A1000B4201AB193F8BA207F2A1BD093F8C420CF
:100A200092B193F8CA307F2B0ED1237B73BB657BC9
:100A3000012D45D0012319466373206800F064F846
:100A4000617B606800F060F8204603B0BDE830408C
:100A5000FFF7A6BF237B63B9627B2AB31946637392
:100A6000206800F051F8617B606800F04DF8A368E1
:100A7000D4E7002520682946257300F06BF8294645
:100A8000606800F067F829466573E9E7002520688B
:100A90002946257300F05EF82946606800F05AF890
:100AA000012319466373C8E7012520682946257389
:100AB00000F050F82946606800F04CF8617BCFE701
:100AC00020682946257300F045F82946606800F043
:100AD00041F8617BB1E700BF38B50446002342F21C
:100AE000180004F500552360A3802044AB6000F09B
:100AF000E1F946F22C00204400F0CEF80023204615
:100B0000EB602B616B6138BD417149B1012906D1A0
:100B100046F22C0300F500420344D363704770474C
:100B200042F2180300F500420344D363704700BF4C
:100B300042F20C0388B0034493E8070008AB03E9D2
:100B40000700DDED060A9DED071A9DED050A08B0C8
:100B5000704700BF0171704730B5057989B0A5B104
:100B600000F50050002200F10C03C26002614261F6
:100B700093E8070008AB03E90700DDED060A9DEDE9
:100B8000071A9DED050A09B030BD00F50054A368B1
:100B90005A1C00EB8303B2F5006FA26083ED020ADA
:100BA00010DB00F5004300F108014FF40062D86B40
:100BB00003689B689847A56084ED030AC4ED040AA6
:100BC00084ED051A0C3408AB94E8070003E907002C
:100BD000D3E700BF10B5044646F22C00204400F0D5
:100BE00041F842F21800204400F04AF9204610BDB6
:100BF00070B542F21805044601600E4605442846C9
:100C000000F01CF946F22C003146204400F00CF8AC
:100C100004F5004304F108004FF40052DD630021A5
:100C2000BDE8704012F020BB0C4A0D4B82FB01C2A4
:100C30004FEAE17C00B583FB01E35DF804EB416022
:100C40001144CCEBA3134FF40052CCEB6111C0E97B
:100C500002310021103012F007BB00BF898888885C
:100C6000D34D6210034B10B50446036000F0E4F866
:100C7000204610BDA4600108064B10B50446036071
:100C800000F0DAF842F21001204612F076FA20461F
:100C900010BD00BFA460010810B5044600F0C6F8FE
:100CA000014B2046236010BDA4600108002A40DDEE
:100CB00001EB820C9FED1F6A0B4630B59400F3ECFC
:100CC000017A6345A7EEA76AF9D1DFED1B7AB4EE8E
:100CD000E76AF1EE10FA25D401EB420500F11004A9
:100CE0004FF0000E6D00A2EB0E03002B17DDA5EBFD
:100CF0000C000B46DFED0F7AF3EC016AB0EC017AE1
:100D00009C45E6EE877AF7D187EE867A0EF1010EE2
:100D1000ACF1040C7245A4EC017AE4D130BDDFEDF6
:100D2000057AF1E7224600211030BDE8304012F08C
:100D30009BBA704700000000BD378635F0B5ADF5B1
:100D4000005D171E064689B008AD20DD4FEA870C0E
:100D500028466446624612F079FA2B4605EB040CED
:100D6000DFED307A2946B1EC017A8C4577EE877A4F
:100D7000F9D107EE107AF8EEC76A87EEA67AD3EDBE
:100D8000007A77EEC77AE3EC017A9C45F7D12946E1
:100D90003A463046FFF78AFFD6E902318B4239DA0C
:100DA0001A1D9FED217A4FF0FF3006EB8202F2EC24
:100DB000017AF4EEC77AF1EE10FA02DDB0EE677A4E
:100DC000184601338B42F2D1B5EE407AF1EE10FABB
:100DD00020DD431C1ED007EE100AD6ED017A06EB8B
:100DE00080004FF07E52F8EEC76AF8EEE77A0369AA
:100DF00045F8042C45F8083C87EEA67A05ED037A01
:100E000015ED030A55ED020A15ED011A0DF5005D09
:100E100009B0F0BD002345F80C3C45F8083C45F806
:100E2000043CEDE700000000FFFF7FFF014B036083
:100E3000704700BFBC600108704700BF0D4A4FEA11
:100E4000E17C0D4B10B482FB014283FB0143416006
:100E50001144CCEBE313094ACCEB6114002102618D
:100E60004FF48042C0E9024314305DF8044B12F0A5
:100E7000FBB900BF89888888B5814E1BCDCC4C3E1C
:100E8000034B10B504460360FFF7D6FF204610BDA4
:100E9000D4600108064B10B504460360FFF7CCFF91
:100EA00044F21401204612F068F9204610BD00BF3C
:100EB000D460010810B50446FFF7B8FF014B204687
:100EC000236010BDD460010870B58568002D23DD56
:100ED00001EB420600F1140401EB820C4FF0000E0E
:100EE0007600A2EB0E03002B17DDA6EB0C000B46E1
:100EF0009FED0F7AF3EC017AF0EC016A634577EE2F
:100F0000E67AA7EEA77AF5D10EF1010EACF1040C4A
:100F1000A4EC017AAE45E4D170BD0EF1010E9FED57
:100F2000047AACF1040CAE45A4EC017AD9D1F3E714
:100F30000000000010B4D0E90242531C04F1FF3C51
:100F40009C4518DD02F6050200EB820211460432D0
:100F500091ED007AD2ED007AF4EEC77AF1EE10FA54
:100F600006D590ED047AF4EEC77AF1EE10FA07D4C4
:100F700001339C45EAD14FF0FF305DF8044B7047D8
:100F800003F6050200EB820208E091ED017AD1ED53
:100F9000007AB4EEE77AF1EE10FAEED51846013396
:100FA00011460432A342F0DB5DF8044B704700BFEA
:100FB00001292DDD8368013B8B4229DD00EB810097
:100FC000F0EE005A9FED156A00F50050D0ED047A5E
:100FD00090ED055AB0EE677AD0ED066A95EE257A67
:100FE00037EE667AF0EEC75AF4EEC65AF1EE10FA12
:100FF0000ED477EEE67A06EE101AF6EE006AB8EE38
:10100000C60A67EEA67AC7EE876A36EE800A704790
:1010100007EE901AB8EEE70A704700BFBD37863575
:1010200010B5044688B0FFF74FFF4FF07E51A2681D
:1010300004F50053012A596124DD42F2180104F13C
:10104000140C04F11803DFED257A0CEB820C21441B
:101050000122F3EC016A9FED217A77EEA67AF4EE95
:10106000C77AF1EE10FA07DD07EE102AB8EEC77A5C
:1010700087EE876A86EE867A634502F10102A1EC6B
:10108000017AE6D12046FFF755FF431C014620D0E8
:101090002046FFF78DFF94ED017A01F60401F7EE8B
:1010A000007AB8EEC77A04EB8104CDED077AC7EE7B
:1010B000006A94ED016A77EEC67ACDED067ACDED41
:1010C000056ADDED060A9DED071A9DED050A08B0DB
:1010D00010BD0023059306930793F2E7000000007C
:1010E00000F082B938B5044600F09EF9D4F8A85053
:1010F000204600F0B5F9284601F06CFCD4F8AC505D
:10110000204600F0ADF92846BDE8384001F062BC49
:1011100038B5044600F06CF9D4F8A850204600F029
:101120009FF9284601F056FCD4F8AC50204600F058
:1011300097F92846BDE8384001F04CBC183002F061
:1011400015B900BF10B50446683001F01FFC04F16A
:101150008800BDE8104001F019BC00BF10B504467E
:10116000403001F093FC04F1B00001F00BFE04F1FB
:10117000C000BDE8104001F005BE00BF10B5044638
:10118000D83001F0D7FD04F59670BDE8104001F0AD
:10119000D1BD00BFF0B54FF481718FB000F1D80719
:1011A00001254FF4C0624FF4E063ADF8081000F57C
:1011B000967402993846ADF80C2008AEADF81030A0
:1011C0000095DDE9032301F077FD40F201134FF4B0
:1011D00080722046ADF814304FF480630599009575
:1011E0000BADADF81820ADF81C30DDE9062301F099
:1011F00063FD3046072105F0BDFB96E8070085E852
:1012000007002946384601F07FFD96E8070085E88B
:1012100007002946204601F077FD384601F08AFD97
:1012200020460FB0BDE8F04001F084BD2DE9F0414B
:1012300040F2024304460222002504F1180704F19B
:10124000A8062DED028B8EB09FED1B8AADF80C30F9
:1012500005A8039901F068FE02220DF12600ADF801
:101260001020049901F060FE0423022205A93846EB
:1012700001F06EFE04F1680204F18803C4E92A2338
:101280002946384656F8048B02F086F80146204677
:10129000019100F0E5F80023F0EE480A019940467C
:1012A0001A4601F041FB25B10EB0BDEC028BBDE842
:1012B000F0810125E4E700BF6F12033B2DE9F04107
:1012C00004469AB00027019100F08CF8019920465D
:1012D00000F086F940F6061304F1B0069FED400ACF
:1012E000ADF8143004F1C0053046059901F030FD29
:1012F0004FF4007328469FED3A0AADF8183004F514
:10130000C878069901F024FD40F6033240F20163EB
:101310009FED330AADF8082004F140000299ADF8C2
:101320000C70C4F8D0600FAEC4F8D45007ADADF85F
:101330001030DDE9032301F079FB2046FFF72AFF97
:101340002046FFF773FF284601F09CFC01230DF1B6
:101350002C0E04F5C07C1593189347F612231697AC
:1013600019930223179395E80F008CE80F008EE87D
:101370000F0086E80F00BDF840301490ADF84E30F5
:10138000BDF84230D4E9625EADF84C30C4E9655E28
:10139000BEF1000F04D072463946284611F064FFB2
:1013A00013A9404604F0ACF904F5D27001F07EFCBC
:1013B0003021204600F038F8D4F8A850204600F03C
:1013C0004FF8284601F006FBD4F8AC50204600F058
:1013D00047F828461AB0BDE8F04101F0FBBA00BF5B
:1013E00000000000704700BF143001F069BA00BF70
:1013F00038B500F1140504462DED028B284601F0A6
:101400001BFA284601F014FA2846B0EE408A01F093
:10141000FDF9D0ED007AF8EE677A88EE277ABDEC18
:10142000028B84ED0E7A38BD38B500F11405044600
:101430002DED028B284601F0EDF9284601F0F8F970
:101440002846B0EE408A01F0E1F9D0ED007AF8EEDE
:10145000677A88EE277ABDEC028B84ED0E7A38BD70
:1014600090ED0E0A704700BF10B540F203338EB006
:1014700000244FF60B7240F20341ADF8083009A882
:101480000123ADF81020ADF824202246ADF80C1051
:101490000094029907940C94CDE90544CDE90A44DF
:1014A00002F07CF804A8012322460399009402F07C
:1014B00075F809A802F058F910B901200EB010BD56
:1014C00004A802F051F9A0420CBF022020460EB041
:1014D00010BD00BF2DE9F04103239AB0012700247D
:1014E0000646CDE914373B4BCDE9104340F2045397
:1014F000CDE91647ADF84830FFF7B6FFB8420546CC
:1015000025D0022845D040F60132334B0DF12C088E
:101510001894ADF82C200B981997CDF84A3000F0AC
:10152000E3F810A906F13C0003F066F9302003222D
:101530004FF07E5341460D930E93CDE90B02F26BB3
:1015400006F1140001F02AF91AB0BDE8F081102369
:10155000214A06A906908DF828300DF12C081F4B62
:10156000CDF84A2007930294CDE91804CDE9080488
:1015700002A802F079FB0823029A03A94046ADF8BD
:101580000C508DF80E40049505930B9400F0ECF888
:10159000C7E700200121104B0DF12C083A460094BA
:1015A000CDF84A304FF60B730C94ADF82C3023462F
:1015B000CDE9180140F601314046ADF81810069902
:1015C000CDE90D4401F0EAFF2146404602F0D8F88B
:1015D000A7E700BF04020404040604030704010B88
:1015E0002DE9F04704462DED028B82B000294DD045
:1015F000012140F2011200230091ADF804208DF882
:101600000630364A0127364B04F10409354904F106
:101610002908626040F20272A36040F60663E1604E
:1016200004F1250AA4F82520A4F82930278284F89B
:10163000277084F82B7004F081FC054604F0E4FA6E
:101640006946064650BB4DB304F130008DF8067074
:1016500004F0FCFB072D3CD104F114052046FFF7F4
:1016600039FF284601F0E4F82846B0EE408A01F040
:10167000CDF8D0ED007AF8EE677A88EE277A84ED1F
:101680000E7A02B0BDEC028BBDE8F08740F2011388
:1016900000918DF80610ADF80430B2E704F1300087
:1016A00004F0D4FB072D11D04946204602F024FD5A
:1016B0000EB9002DD0D1504602F06CF8404602F031
:1016C00069F804F1120000F079F9C5E7002EF2D1B3
:1016D000C2E74946204602F00FFDBDE705080509AF
:1016E00005070506050A060610B584B00346012461
:1016F000ADF8040003A8ADF80C30ADF80E4002F0D0
:1017000049F8214603A802F02FF9204604F07AFA9E
:10171000002103A802F028F9204604F073FA2146BC
:1017200003A802F021F904B010BD00BF10B5C2F348
:10173000002384B00C46017C8DF80D2043EA44025E
:10174000FA2402238DF80C2003AA009402F022FB55
:1017500018B10124204604B010BD04460A2004F04C
:1017600051FA204604B010BD034670B543F8042B6F
:10177000044684B007C983E80700A37983B91A2116
:101780000B461E22FA2523742046ADF80C200223B6
:1017900003AA009502F0FEFA28B1012004B070BD42
:1017A0001B210B46EDE70A2004F02CFA4FF4B85247
:1017B00000950223ADF80C20204603AA217C02F0FC
:1017C000E9FA0028E9D10A2004F01CFA41F2027279
:1017D00000950223ADF80C20204603AA217C02F0DC
:1017E000D9FA0028D9D10A2004F00CFA0422009575
:1017F0000223ADF80C20204603AA217C02F0CAFA8D
:101800000028CAD10A2004F0FDF90622009502231F
:10181000ADF80C20204603AA217C02F0BBFA002878
:10182000BBD10A2004F0EEF941F208220095022310
:10183000ADF80C20204603AA217C02F0ABFA002868
:10184000ABD10A20064604F0DDF90095022303AA75
:10185000217C2046ADF80C6002F09CFA00289CD157
:10186000304604F0CFF9009522790C232046002A57
:101870008DF80C3003AA4FF0020314BF62214221FD
:101880008DF80D10217C02F085FA002885D13046B4
:1018900004F0B8F92279D4E902310B43DBB20AB97A
:1018A00043F0400362790AB143F020030E22FA2587
:1018B0008DF80D302046009502238DF80C2003AAE8
:1018C000217C02F067FA00287FF467AF0A2004F059
:1018D00099F9102200950223ADF80C20204603AAA6
:1018E000217C02F057FA00287FF457AF0A2004F059
:1018F00089F9122100950223ADF80C1003AA217C6E
:10190000204602F047FA00287FF447AF0A2004F08F
:1019100079F9012209212046FFF708FF003818BF96
:1019200001203BE7F0B5102387B0234C01220025AE
:101930000126002702A920460195CDE902234FF494
:101940008052CDE904670BF099FD642005F044F95D
:1019500002A94FF480522046CDE9046702261027E1
:10196000CDE902670BF08AFD0322102302A920466D
:10197000CDE9022300230422CDE904234FF4805251
:101980000BF07CFD40F23223042202A901931023C4
:101990002046CDE90223019A012305924FF480529B
:1019A00004930BF06BFD40F6060120460BF086FD1C
:1019B000284607B0F0BD00BF449B01241C4B002209
:1019C0001C494FF0400C30B5054689B002205960E3
:1019D00007219A601A620124DA620A224FF4006E2B
:1019E000DC6006922022CDE9000104200821CDE927
:1019F000020103201021CDE9040108206946C3E952
:101A000004024FF4C072181DC3E906C24FF480529D
:101A1000C3E909E20BF008FD38B92846FFF782FF59
:101A2000003818BF012009B030BD204609B030BDD4
:101A3000409B012440410052614A0021D0B5136807
:101A40008EB00A91002B40F0B9805E4B01214FF619
:101A500083700C2411600221D3F8D42000260327C0
:101A600042F48052C3F8D420D3F8D42002F4805238
:101A70000092009AD3F8E02042F01002C3F8E02070
:101A8000D3F8E02002F010020192019AD3F8E0208E
:101A900042F04002C3F8E020D3F8E02002F0400218
:101AA0000292029AD3F8E02042F00802C3F8E02044
:101AB000D3F8E02002F008020392039AD3F8E02062
:101AC00042F48072C3F8E020D3F8E02002F4807280
:101AD0000492049AD3F8E02042F08002C3F8E02098
:101AE000D3F8E02002F080020592059AD3F8E020B6
:101AF00042F02002C3F8E020D3F8E02002F02002F8
:101B00000692069AD3F8E02042F00402C3F8E020DF
:101B1000D3F8E0300C9403F0040307930323079AEF
:101B20000B93CDE9080108A9274806F0DBFE48F22F
:101B30003712022308A925480C94CDE90823CDE9E2
:101B40000A6706F0CFFE4CF20372022308A9204870
:101B50000C94CDE90823CDE90A6706F0C3FE40F2F4
:101B6000FF62022308A91B480C94CDE90823CDE9A4
:101B70000A6706F0B7FE4FF60C72022308A9164852
:101B80000C94CDE90823CDE90A6706F0ABFE4FF6C9
:101B90003F02022308A911480C94CDE90823CDE99E
:101BA0000A6706F09FFE2022022308A90A480C9427
:101BB000CDE90A67CDE9082306F094FE0EB0D0BD4A
:101BC0003C9B01240044025800100258001802589F
:101BD000000C025800200258001C02580014025841
:101BE0002DE9F04FDFF8108406460D46144608F143
:101BF00018002DED028B89B000AF02F0F5FED8F889
:101C0000183073B3D8F81C30D8F80490002B43690F
:101C10000BBF4FF0080A4FF0100A4FF0020B4FF0C5
:101C2000040BB9F1000F2AD0A200EA46012B02F101
:101C3000070222F00702ADEB020D6846ADEB020D84
:101C4000694600F03F81022B00F0D680002B6FD058
:101C50002246C847D5462437BD46BDEC028BBDE8B9
:101C6000F08FD8F81C30002BF5D0D8F804904FF046
:101C7000080A4FF0020B4369B9F1000FD4D1FB61A0
:101C8000D8F80030BB61002BE5D0D54802F01EFF2C
:101C90006B46BBF1020F786108EE103AFB6900F069
:101CA00083816A465146A2EBC40295466200EA4629
:101CB000B2FBFBF2AAEBC40085460AEB8200EE46BB
:101CC000F861ADEB010DF8690EEB820CC7F810C09E
:101CD000EC46ADEB010D00EB8201CCF80400CCF832
:101CE000081001EB82013869E946CCF80C1000EBD2
:101CF0008201CCF800A001EB8202C9E900E0C9E949
:101D00000212012B00F06483022B00F06C82002B86
:101D100000F08081620849466046BB69984718EE2A
:101D2000103A24379D46BD46BDEC028BBDE8F08FCE
:101D3000002C8DD01A46D8ED0C6A9FEDB27A8446FD
:101D4000331D36F922E00CF1080C07EE90EA33F966
:101D500022E00232F8EEE77A944267EE877A67EE85
:101D6000A67A4CED027A07EE90EAF8EEE77A67EE93
:101D7000877A67EEA67A4CED017AE2D8F9612246BD
:101D8000C847984ED8ED0D6A0020F9692B1D9FEDCC
:101D90009E7A9FED9E6ADFED9E5A22E0F4EEC67AAF
:101DA000F1EE10FAC0F2C88447F6FE72D1ED017A66
:101DB00045F8202066EEA77AF4EEC77AF1EE10FA25
:101DC00040F2F080F4EEC67AF1EE10FAC0F2D5845B
:101DD00047F6FE7243F820200230083184427FF635
:101DE00039AFD1ED007A66EEA77AF4EEC77AF1EE5C
:101DF00010FAD3D83246D9E7002C3FF429AFD8EDFA
:101E00000C6A84469FED787A0022331D8E4656F880
:101E100022100CF1080C07EE901A53F8221002322F
:101E2000F8EEE77A944267EE877A67EEA67A4CED91
:101E3000027A07EE901AF8EEE77A67EE877A67EE95
:101E4000A67A4CED017AE2D871462246C7F81CE02A
:101E5000C847664ED8ED0D6A0020F9692B1D9FED2D
:101E60006A7A9FED6A6ADFF894C120E0F4EEC67AE0
:101E7000F1EE10FAC0F279843246D1ED017A45F8DC
:101E8000202066EEA77AF4EEC77AF1EE10FA40F25F
:101E90008780F4EEC67AF1EE10FAC0F25E84324624
:101EA00043F820200230083184427FF6D3AED1EDD2
:101EB000007A66EEA77AF4EEC77AF1EE10FAD5D87A
:101EC0006246DAE7002C3FF4C3AED8ED0C6A8646D2
:101ED0009FED477A4FF0000C331D56F82C200EF181
:101EE000080E82F40002A2F5000207EE902A53F8D1
:101EF0002C200CF1020CF8EEE77A82F40002644523
:101F0000A2F5000267EE877A67EEA67A4EED027AB6
:101F100007EE902AF8EEE77A67EE877A67EEA67A00
:101F20004EED017AD9D8F9612246C847314ED8ED35
:101F30000D6A0020F9692B1D9FED337A9FED336AFE
:101F4000DFF8BCC01FE0F4EEC67AF1EE10FAC0F282
:101F5000FC833246D1ED017A45F8202066EEA77A5F
:101F6000F4EEC77AF1EE10FA18D9F4EEC67AF1EE73
:101F700010FAC0F2DA83324643F8202002300831EA
:101F800084427FF667AED1ED007A66EEA77AF4EE72
:101F9000C77AF1EE10FAD6D86246DBE76246EBE785
:101FA00062467DE7324615E7A100D6466208073152
:101FB00021F00701ADEB010DEA46ADEB010D6946DD
:101FC000ADEB0E0D0AEB8200EC46ADEB0E0D01EB16
:101FD0008202F861E946CCE900A0C9E9001290E666
:101FE000949B01240280FFFF000000300082FF7FED
:101FF0000000003482FF7F00789B0124007E008077
:102000007E0080FF0000003804FF7FBF04FF7F3F99
:1020100000FEFF46002C00F0C982BBF1020FD8F889
:10202000242000F0FA827969C7F8049002EB810E4F
:102030005FED0C5A8A00DCF808100EF104007A619A
:102040001A46DCF80C303B61331DD7F810903D6127
:10205000FD69C7E902CB8C46834636F92210D8EDDC
:102060000C7A06EE101A33F9221006EE901A3EF999
:102070002210B8EEC66A07EE101AF8EEE66A3BF9CF
:102080002210B8EEC77A26EE256A66EEA56A27EE1C
:10209000257A26EE276A66EEA76A27EE277A07EEEC
:1020A000901A51080232F8EEE77A0AEB8100944266
:1020B00080ED006A05EB810067EEA57AC0ED006A4D
:1020C0000CEB810009EB810180ED007A98ED0C7A30
:1020D00067EE877AC1ED007ABFD8D7F804903D69E2
:1020E000D7E902CB60466208BB6949469847D8F8F1
:1020F0002C307A69D8ED0D6A1A441FED3D7A1FED38
:102100003D6A2B1D904602F1040A5FED3F5A002202
:10211000A84ED9E900EC51E0F4EEC67AF1EE10FADF
:10212000C0F2C78247F6FE7045F822000CEB0100B2
:10213000D0ED007A66EEA77AF4EEC77AF1EE10FAE7
:102140004BD9F4EEC67AF1EE10FAC0F2BA8247F635
:10215000FE70BBF1020F43F822002BD0D9F8080023
:102160000844D0ED007A66EEA77AF4EEC77AF1EE75
:1021700010FA36D9F4EEC67AF1EE10FAC0F2CD823A
:1021800047F6FE7048F82200D9F80C000144D1ED62
:10219000007A66EEA77AF4EEC77AF1EE10FA1ED94D
:1021A000F4EEC67AF1EE10FAC0F2AF8247F6FE7195
:1021B0004AF82210023294427FF6B1AD51080EEB7C
:1021C00081008900D0ED007A66EEA77AF4EEC77A36
:1021D000F1EE10FAA0D83046A6E73046B9E731460E
:1021E000E6E73046CEE7002C00F0E081BBF1020FBD
:1021F000D8F8243000F0E1817A69DCF8081003EBAC
:10220000820EC7F804909300DFED6B5A0EF10400C4
:1022100000227B61DCF80C303B61331DD7F8109055
:102220003D61FD69C7E902CB8C46834656F8221012
:10223000D8ED0C7A07EE101A53F82210B8EEC76AE0
:1022400007EE101A5EF82210F8EEC76A07EE101AB1
:1022500026EE256A5BF82210B8EEC77A66EEA56A0C
:1022600026EE276A27EE257A66EEA76A27EE277AFA
:1022700007EE901A51080232F8EEE77A0AEB810075
:10228000944280ED006A05EB810067EEA57AC0ED0F
:10229000006A0CEB810009EB810180ED007A98ED7A
:1022A0000C7A67EE877AC1ED007ABFD8D7F8049030
:1022B0003D69D7E902CB60466208BB694946984749
:1022C000D8F82C307A69D8ED0D6A1A449FED3E7A21
:1022D0009FED3E6A131D9246DFF8E4C00022FB61C9
:1022E0002B1D364ED9E9008E4EE0F4EEC67AF1EEA3
:1022F00010FAC0F2FC81304645F822000EEB0100D6
:10230000D0ED007A66EEA77AF4EEC77AF1EE10FA15
:1023100049D9F4EEC67AF1EE10FAC0F2EF813046F8
:10232000BBF1020F43F822002AD0D9F80800084474
:10233000D0ED007A66EEA77AF4EEC77AF1EE10FAE5
:1023400035D9F4EEC67AF1EE10FAC0F2C981304602
:102350004AF82200D9F80C000144D1ED007A66EE6B
:10236000A77AF4EEC77AF1EE10FA1ED9F4EEC67A27
:10237000F1EE10FAC0F2AD813146F86940F8221052
:10238000023294427FF6CBAC510808EB8100890001
:10239000D0ED007A66EEA77AF4EEC77AF1EE10FA85
:1023A000A3D86046A8E76046BAE76146E5E760461D
:1023B000CEE700BF0280FFFF000000300082FF7FF9
:1023C000007E00800000003404FF7FBF04FF7F3FD9
:1023D000002C00F0EB807A690021D8F82430C7F88F
:1023E000109003EB820ED7F81C909300FD610EF164
:1023F00004021FED0C6A7B61331D154656F821203F
:102400004808D8ED0C6ABBF1020F82F40002A2F575
:10241000000207EE902A53F8212082F40002B8EE61
:10242000E77AA2F5000227EE067A07EE902A0AEB79
:102430008002F8EEE77A27EE267A67EE867A82ED5A
:10244000007A09EB80024FEA800067EEA67AC2EDBF
:10245000007A27D05EF8212082F40002A2F5000263
:1024600007EE902A55F8212082F40002B8EEE77AB0
:10247000A2F5000227EE067A07EE902ADCF8082083
:10248000F8EEE77A024427EE267A67EE867A82ED46
:10249000007A98ED0C7ADCF80C2067EE877A02441B
:1024A000C2ED007A02318C42A8D8D7F8109060466D
:1024B0006208BB694946FD699847D8F82C307A69AB
:1024C000D8ED0D6A1A441FED407A1FED406A131DC6
:1024D0009246DFF8C4C20022FB612B1DAB4ED9E946
:1024E000008E4EE0F4EEC67AF1EE10FAC0F2C5802E
:1024F000304645F822000EEB0100D0ED007A66EE82
:10250000A77AF4EEC77AF1EE10FA49D9F4EEC67A5A
:10251000F1EE10FAC0F2BF803046BBF1020F43F873
:1025200022002AD0D9F808000844D0ED007A66EEDF
:10253000A77AF4EEC77AF1EE10FA35D9F4EEC67A3E
:10254000F1EE10FAC0F2AE8030464AF82200D9F817
:102550000C000144D1ED007A66EEA77AF4EEC77A5A
:10256000F1EE10FA1ED9F4EEC67AF1EE10FAC0F2CE
:102570008B803146F86940F82210023294427FF68F
:10258000CEAB510808EB81008900D0ED007A66EEF1
:10259000A77AF4EEC77AF1EE10FAA3D86046A8E75E
:1025A0006046BAE76146E5E76046CEE7224649461F
:1025B0006046BB699847FFF7B2BBC7F810B000226E
:1025C00098ED0C6A331DDFED726AD7F81CB078699C
:1025D00056F8221007EE901A53F82210B8EEE77A58
:1025E00007EE901A51080232F8EEE77A27EE267AC3
:1025F0000AEB810E94420BEB810167EEA67A27EE7F
:10260000067A67EE867A8EED007AC1ED007ADFD821
:102610008300D7F810B07B614DE61A46C7F810B0BA
:1026200098ED0C6A331DDFED5B6AD7F81CB0786952
:1026300036F9221007EE101A33F9221007EE901A1D
:10264000B8EEC77A51080232F8EEE77A27EE267A1A
:102650000AEB810E94420BEB810167EEA67A27EE1E
:10266000067A67EE867A8EED007AC1ED007ADFD8C1
:102670008300D7F810B07B6134E5F0EE675AFEEEC8
:10268000E45A15EE900A34E7F0EE675AFEEEE45A8B
:1026900015EE901A6EE7F0EE675AFEEEE45A15EE6C
:1026A000900A3AE7F0EE675AFEEEE45A15EE900A09
:1026B0004BE767EEA57AFDEEE77A17EE900A00B2D7
:1026C00032E567EEA57AFDEEE77A17EE900A00B2E2
:1026D0003FE5F0EE675AFEEEE05A15EE901A4CE632
:1026E000F0EE675AFEEEE05A15EE900A30E6F0EE94
:1026F000675AFEEEE05A15EE900AFDE5F0EE675AD5
:10270000FEEEE05A15EE900A0AE667EEA57AFDEEB7
:10271000E77A17EE901A09B24AE567EEA57AFDEE60
:10272000E77A17EE900A00B22CE5F0EE675AFEEE5B
:10273000E45A15EE902A1FE467EEA57AFDEEE77ADB
:1027400017EE902A12B2FFF731BBF0EE675AFEEE99
:10275000E45A15EE902AFFF7FDBBF0EE675AFEEE45
:10276000E05A15EE902AFFF79BBBF0EE675AFEEE9B
:10277000E05A15EE902AFFF780BB67EEA57AFDEED2
:10278000E77A17EE902A12B2FFF724BB82FF7F0090
:1027900000000030000000387E0080FF30B5184C8B
:1027A000154685B0046004F1080EEC460FC98EE8AA
:1027B0000F00D4ED047AF5EEC07A8CE80F00F1EE4C
:1027C00010FA1ADDB7EE006A94ED057A27EE277A43
:1027D000C6EE276A84ED0D7AC4ED0C6A6DB1204611
:1027E00040F8185F02F000F9064903690020064A24
:1027F0002162A262E36005B030BD012005B030BDAA
:10280000789B012400200030000000300068083070
:10281000704700BFB1F5807F03680A4628BF4FF4B8
:102820008072B1F5807F9A6094BF002001207047CC
:102830000068183002F038B970B504688AB0A3692E
:10284000E160CBB104F11805284602F0CDF88446CA
:10285000EE46E668BCE80F00AEE80F00BCE80F00EB
:10286000AEE80F009CE803008EE8030069462846A6
:10287000049601F0C1FFF8B9E069D8B104F11C0574
:10288000284602F0B1F88446EE46E468BCE80F0042
:10289000AEE80F00BCE80F00AEE80F009CE80300B4
:1028A0008EE8030069462846049401F0A5FF00382D
:1028B00018BF01200AB070BD01200AB070BD00BF72
:1028C00030B5046883B00D46E3694BB1A3680020BE
:1028D000E26A616A9B00009004F11C0002F086F835
:1028E000A3680748A26A9B00216A009004F11800BF
:1028F00002F07CF80020C4E9005003B030BD00BFF6
:10290000E11B000810B4074B4FF07E513024002229
:10291000032019619C60D8605DF8044B5961C3E9DC
:1029200006227047789B0124F6EE007A9FED166A26
:1029300020EE207A0160F7EE006A80ED036A80EDF8
:10294000020A27EE277AC6EE877AF4EEE67AF1EEEF
:1029500010FA11DDF0EE667A4FF07E514FF0000C68
:1029600002760022C0ED017AC0F814C001614376FE
:102970008276C0ED070A7047F4EEC67AF1EE10FADF
:10298000EAD5F0EE467AE7E7000000000268037E31
:10299000128807EE902AFBEEC87A1BB1B7EE007AD8
:1029A00077EE677AD0ED056A90ED047A77EEE67AF5
:1029B000437E67EE877A0BB1F1EE677A90ED030AFA
:1029C00090ED017A77EEC07AA7EE270A80ED030A30
:1029D000704700BF837E80ED020AABB9D0ED077A65
:1029E00027EE800AF6EE007AB7EE007A20EE270A8C
:1029F000C7EE007AF4EEC77AF1EE10FA07DDF0EEDA
:102A0000477AC0ED017A7047DFED067AE8E7F5EE28
:102A1000C07AF1EE10FAF4D5DFED037AC0ED017A59
:102A2000704700BF6F12033B0000000030B585B057
:102A300004460025ADF80C10ADF80820ADF80430C0
:102A400003F0D8F8BDF80C204FF48073206004F137
:102A500018002283BDF808206383E383A2832571D5
:102A600000F098FE04F11C0000F094FE9FED060AB1
:102A7000019904F1080000F06BF94FF6FF736562ED
:102A8000238405B030BD00BF00000000F8B5044647
:102A900003F0B0F8002623682671834205D104F1C3
:102AA0000800BDE8F84000F06DB9012794F8205007
:102AB000206004F11800BD40277100F047FF6DB29F
:102AC000284394F82150BD4084F8200004F11C00F4
:102AD00000F03CFF94F820306DB2666203F003030F
:102AE0002843022BC0B284F8210009D000F0030073
:102AF0000228D4D1002BD2D14FF0FF336362CEE74E
:102B00008307CCD16762CAE7704700BFF8B5134F9F
:102B10003C687F2C07D98023114A42F224411C468D
:102B20003B60A2F87E100F4D2B68012B0AD90C4E8A
:102B30000D4D22463146284600F0DAF90028F8D13A
:102B40003860F8BD22460649074800F0D1F9002850
:102B5000F7D12B68386001332B60F8BDB49B01249A
:102B6000B89B0124B09B0124389C012430B4154C3F
:102B70002168F1B14B1E144DE81810F801298C465C
:102B800019460A2A01D00D2A02D14BB1013BF4E7C4
:102B90000CF102037F2B10D98023236030BC7047D7
:102BA0000122022323600D200A236854AB5430BC59
:102BB000704701220223044DF4E70CF10102614643
:102BC000F0E700BFB49B0124B89B012410B5094C69
:102BD00002460B46084821680844C1F1800111F003
:102BE000F3F8236818442060FFF7C0FFFFF78EFF5B
:102BF00010BD00BFB49B0124B89B01240FB400B5E5
:102C000083B004A951F8040B0191FFF7DFFF03B073
:102C10005DF804EB04B0704710B5044600210A4883
:102C200000F0E0F8002C094B14BF022200220848F3
:102C30001A60FFF7E3FF0748FFF7E0FF0A20BDE84F
:102C4000104002F0DFBF00BF389C0124B09B01247C
:102C5000E4600108F4600108064A0749074808B51E
:102C600010F086FA034A04490548BDE8084010F010
:102C70007FBA00BF00000024092B0008389C012403
:102C80003C9C0124074A118830B481800024064D01
:102C900091884FF4807285600460C180C26030BC4E
:102CA000704700BFEC5F01080040003000220A239B
:102CB00002700371704700BF30B585B004469FEDC8
:102CC000110A9DF82050ADF80C100399ADF80820BA
:102CD0002A46ADF804308DED000A0EF031F99DED75
:102CE000000A2A46029904F11C000EF029F99DED14
:102CF000000A2A46019904F1380005B0BDE83040C9
:102D00000EF01EB900007A4438B50C46054691ED28
:102D1000000A0EF039F994ED010A05F11C000EF0DD
:102D200033F994ED020A05F13800BDE838400EF0A1
:102D30002BB900BF10B504460EF038F904F11C00A1
:102D40000EF034F904F13800BDE810400EF02EB951
:102D500070B5044682B0C1F30726CDB2ADF80410B9
:102D600002F048FF4FF480724FF001232060A01D55
:102D7000A571A280E671A36002B0BDE8704000F0CA
:102D800009BD00BF38B5044602F034FF00222368B5
:102D90002271834210D00122A57AE37A9540206007
:102DA0002271A01D6DB243B900F0D0FD40B228439E
:102DB000C0B27F28A0720AD038BD00F0C7FDB0FABB
:102DC00080F040092843C0B27F28A072F4D102F0FD
:102DD00011FF07EE900AF8EE677AC4ED037A38BD6A
:102DE000704700BF012910B506D0022915D051B196
:102DF000BDE8104007F058BC0A46344834490DF08D
:102E0000F3FBE8B1FEE7334B0A46334C3349344811
:102E10001C600DF0E9FB68B1FEE701222C492B484C
:102E20000DF0E2FB00B1FEE72E4928480DF0FEFB55
:102E3000C0B1FEE72B492A480DF0F8FB60B1FEE770
:102E4000284922480DF0F2FB00B1FEE726491F4851
:102E50000DF07AFB08B3FEE7244921480DF074FB1E
:102E6000A8B1FEE7204919480DF06EFB00B1FEE75E
:102E700016480DF0F1FB024640B9164B164C1749A7
:102E800017481C600DF0B0FB68B1FEE7FEE7144880
:102E90000DF0E2FB0028ABD0FEE70C480DF0DCFBA8
:102EA0000028A5D0FEE70F490D480DF0BFFB00B18B
:102EB000FEE70E490A480DF047FB00B1FEE708485F
:102EC0000DF0CAFB002893D0FEE700BFDC9E012472
:102ED0009002002478A10124E12D0008740200244E
:102EE000409C0124F80200245402002444020024DF
:102EF000084691B208B503F05BF9003818BF01200D
:102F000008BD00BF014806F0ADBE00BFD8DB0124FC
:102F1000014806F0A7BE00BFD8DB0124014806F037
:102F2000A1BE00BFD8DB012400B583B04FF0000E76
:102F30004FF0030C4274ADF80410BDF8043080F873
:102F400010E0A0F802C0038003B05DF804FB00BFEE
:102F50002DE9F04FDFF81C8300258DB0C04C0370C5
:102F600008F140034260074601920E46202229469E
:102F70004046C4F86831C4F86481CDE90255CDE912
:102F80000455CDE90655CDE90855CDE90A5510F0AF
:102F90006BF92022294604F5A170C4F83151C4F818
:102FA0003551C4F83951C4F83D5110F05DF9019B19
:102FB00084F8485284F830317A68002A6AD02B4667
:102FC00004F59871454606F1100A9E46F01856F829
:102FD00003B0E2180EF1010ED0F80CC0D0F8049046
:102FE000D0F8088044F803B0C2F80CC04FF0000CD1
:102FF000C2F80490C2F80880008A25F802CB10823B
:103000001AF8032001F8012F002A70D07A684FF0D7
:1030100001001233724584F84802D7D84FF4802259
:1030200090489DF8043008214FF000084FF0000947
:10303000C4F884310023C4E95B020122C4F874316E
:1030400084F88031C4E95E2194F84812C4E96489A7
:10305000A9B3C4F89821002284F8813184F888311A
:103060003B78C4E96722002B38D0012200200121DF
:10307000013B84F8A421C4E96C01082B30D8DFE8B7
:1030800013F0BD00C200C700CC00D100D600DB00A9
:10309000E100E8009DF804300121C4F87421C4F86F
:1030A00084314FF4802384F880216E4AC4E95B2385
:1030B00008230022C4E95E130023C4E9642301232A
:1030C000002284F88131002384F888310323C4F876
:1030D00098313B78C4E96722002BC6D184F8A4312B
:1030E000614804F0B1F9034638B1FFBEFEE77A68E3
:1030F000123372453FF66AAF90E702A95A4802932D
:1031000004F000FB8246002876D1042240F2FF71D1
:103110000A90CDE9081294F83021002A00F0F380DB
:103120004FF006080AEBCA034FEACA0904EB43034F
:103130005B7C072B07D8DFE803F0595C5653504DF2
:103140004A04072307930FFA8AF6D14406EBC60612
:1031500004EB490904EB46077500384600F01AFBFA
:1031600099F81030042B00F3AA80022B00F3BD80E5
:1031700000F0B98004EB0A03002283F8202114F840
:103180001630002B78D0022B00F08A80012B40F003
:10319000B2807B78012B00F0B080002B334B18BF3E
:1031A000002305A93048CDE9053803F079FD002852
:1031B00040F0AC800AF1010A94F830315FFA8AFAE3
:1031C000534540F2A0802A4B53F82A80AAE70623F1
:1031D0000793B8E705230793B5E704230793B2E7FE
:1031E00003230793AFE702230793ACE7002307937A
:1031F000A9E701230793A6E7FFBEFEE703224023CA
:10320000C4E96A236CE707226023C4E96A2367E7FD
:103210000F228023C4E96A2362E71F22A023C4E9A6
:103220006A235DE73F22C023C4E96A2358E77F226F
:10323000E023C4E96A2353E7FF224FF48073C4E913
:103240006A234DE740F2FF124FF49073C4E96A23FA
:1032500046E740F2FF324FF4A073C4E96A233FE728
:1032600080A1012400200240ECA201240002B0252C
:1032700004610108004100307B78062B37D0072B12
:103280003DD0022B4AD0032B4AD0002B4CD0012B2F
:1032900048D0042B4AD0052B254B18BF002380E7CC
:1032A0007B78042B25D0052B2BD08BB3012B31D071
:1032B000022B31D0032B1F4B18BF002371E70323D0
:1032C000043504EB0A0B4FF0000925448BF820313C
:1032D000284609F1010900F05DFA9BF82031043518
:1032E0004B45F5DC4BE70123EAE70223E8E7124B05
:1032F00057E7124B55E7002353E7114B51E7114BAA
:103300004FE7114B4DE70DB0BDE8F08FFFBEFEE774
:103310000E4B46E70E4B44E70E4B42E70E4B40E7A1
:103320000E4B3EE70E4B3CE70E4B3AE70E4B38E7B1
:103330000000B84F002090360800900C1000C0101C
:103340002000F0148000501D000180210004002A9C
:103350000008302E001060320040C03A0080F03E7D
:1033600000005247000021430000844B38B5094C4F
:1033700040F2FF724FF0011104F5B675284604F0D3
:103380006FF994F83021D4F864112846BDE838402C
:1033900003F0DABE80A10124034B0F29D3F86401A6
:1033A00098BF00EB4100704780A10124214B0268C7
:1033B0009A4200D07047204A00232048D2F8D81003
:1033C00030B51F4C41F0200183B0C4F8D001092072
:1033D00004F5E875C4E975034FF48060C2F8D810AD
:1033E000D2F8D8204FF40061C4E9773094F848024D
:1033F00002F02002C4F8E4114FF400519842019207
:103400002846C4F8E811C4E97C33019B14BF0023AB
:103410004FF48073C4F8EC3104F09AFB08B1FFBE9E
:10342000FEE704F5B673C4F8B851C4F8083203B027
:1034300030BD00BF0020024000440258400002405E
:1034400080A10124014804F0FBBE00BF50A3012469
:1034500002682DE9F84F4B4B9A4201D0BDE8F88F36
:10346000494D95F84832002BF8D095F83031002BB3
:1034700077D0002405F10C0905F5A17605F59877BC
:10348000A04613E003F0010117F811BCA9F10800F0
:1034900000F06AFABBF1010F25D895F830310134FC
:1034A00009F112090236A2B293422BD917F8012F63
:1034B000002AF4D0D5F864310021327833F81400B2
:1034C000D5F8683103EB041323F812003388013375
:1034D0009BB233805FFA83FA3A789A42D2D88A460E
:1034E000A6F80080D0E7CAF34001A9F1040000F07B
:1034F0003BFABBF1020FCAF38001CED0484600F080
:1035000033FACAE7002395F8480220490922984275
:10351000C5F8D8314FF48060C5F8D011C5F8D42172
:103520004FF400614FF40052C5F8DC3108BF4FF48E
:103530008073C5F8E821C5E9780100221448C5E97F
:103540007B32C5F8F42104F003FB08B1FFBEFEE7AF
:1035500095F83021D5F864110E48BDE8F84F03F016
:10356000F3BD0A4909224FF48060C5F8D831C5E996
:1035700074124FF400614FF40052C5E97730C5E989
:103580007912DAE70020024080A1012440000240C5
:1035900050A30124ECA20124704700BF10B592B0E3
:1035A000ADF804100180C9B2149C0B29C460C0E9B5
:1035B00001233FD090F801C0BCF10F0F3AD8022A86
:1035C0003FD0032A02D0012A00D000220E92012B04
:1035D00002D0022B18BF0023022C0F932CD0032CF7
:1035E0002AD0012C28D000230A29109327D85C4A1E
:1035F00002EB812202610A2914D8DFE801F0A395C9
:1036000087796B5D4F4133250600564BD3F8E010A8
:1036100041F48061C3F8E010D3F8E03003F4806334
:103620000C930C9B01230DA9104603FA0CF30D9388
:1036300005F058F912B010BD0A291094D7D900220C
:10364000D8E711220E92C2E7464BD3F8E01041F4BE
:103650000071C3F8E010D3F8E03003F400730B936B
:103660000B9BDFE73F4BD3F8E01041F48071C3F8C8
:10367000E010D3F8E03003F480730A930A9BD1E79B
:10368000384BD3F8E01041F08001C3F8E010D3F8D4
:10369000E03003F080030993099BC3E7314BD3F873
:1036A000E01041F04001C3F8E010D3F8E03003F03F
:1036B00040030893089BB5E72A4BD3F8E01041F08C
:1036C0002001C3F8E010D3F8E03003F020030793A3
:1036D000079BA7E7234BD3F8E01041F01001C3F894
:1036E000E010D3F8E03003F010030693069B99E74F
:1036F0001C4BD3F8E01041F00801C3F8E010D3F8F8
:10370000E03003F008030593059B8BE7154BD3F8D6
:10371000E01041F00401C3F8E010D3F8E03003F00A
:1037200004030493049B7DE70E4BD3F8E01041F0B3
:103730000201C3F8E010D3F8E03003F00203039372
:10374000039B6FE7074BD3F8E01041F00101C3F88A
:10375000E010D3F8E03003F001030293029B61E72D
:10376000000002580044025808B50121437800695E
:10377000994089B205F0BEFA003818BF012008BD93
:1037800001230A464178006903FA01F189B205F084
:10379000B7BA00BF8378022B30B504468FB037D05C
:1037A000032B33D0012B31D000230A93E378012B74
:1037B0002AD0022B28D000230B93002320460C9301
:1037C00003F0E8F80546204603F0ECF8237809906A
:1037D000082B13D8DFE803F01F3245586B7E91A405
:1037E0000500594BD3F8E02042F48072C3F8E02082
:1037F000D3F8E03003F480730893089B09A92846A6
:1038000005F070F80FB030BD0B93D6E70A93CDE703
:1038100011230A93CAE74C4B09A92846D3F8E020A4
:1038200042F00102C3F8E020D3F8E03003F00103D6
:103830000093009B05F056F80FB030BD424B09A92C
:103840002846D3F8E02042F00202C3F8E020D3F883
:10385000E03003F002030193019B05F043F80FB041
:1038600030BD394B09A92846D3F8E02042F00402C4
:10387000C3F8E020D3F8E03003F004030293029B86
:1038800005F030F80FB030BD2F4B09A92846D3F80A
:10389000E02042F00802C3F8E020D3F8E03003F063
:1038A00008030393039B05F01DF80FB030BD264BB2
:1038B00009A92846D3F8E02042F01002C3F8E0201E
:1038C000D3F8E03003F010030493049B05F00AF8EA
:1038D0000FB030BD1C4B09A92846D3F8E02042F0B8
:1038E0002002C3F8E020D3F8E03003F02003059372
:1038F000059B04F0F7FF0FB030BD134B09A9284614
:10390000D3F8E02042F04002C3F8E020D3F8E030E2
:1039100003F040030693069B04F0E4FF0FB030BDB4
:10392000094B09A92846D3F8E02042F08002C3F8E9
:10393000E020D3F8E03003F080030793079B04F006
:10394000D1FF0FB030BD00BF0044025838B5054666
:1039500003F020F80446284603F024F801462046E8
:10396000BDE8384005F0C6B970B506460D4603F00F
:1039700011F80446304603F015F82A1E0146204689
:1039800018BF0122BDE8704005F0BAB90023122229
:1039900070B586B0CDE9022304930368032B01D8E8
:1039A00004230593061D841D304602F0F3FF0546EF
:1039B000304602F0F7FF034601A92846019304F0C0
:1039C00091FF204602F0E6FF034620461C4602F027
:1039D000E9FF01A903462046019304F083FF06B0E6
:1039E00070BD00BF634A0368934210B58CB028D005
:1039F000614A934258D0614A934200F09480604AF1
:103A0000934201D00CB010BD5E4C5F48D4F8E0305A
:103A100043F00203C4F8E030D4F8E03003F00203CE
:103A20000A930A9BFFF7B2FFD4F8F43043F0800307
:103A3000C4F8F430D4F8F43003F080030B930B9BFC
:103A4000E0E7504C5148D4F8E03043F00203C4F8AA
:103A5000E030D4F8E03003F002030193019BFFF75C
:103A600095FFD4F8E83000221F2043F400131146DC
:103A7000C4F8E830D4F8E83003F400130293029B52
:103A8000D4F8D83043F00103C4F8D830D4F8D83093
:103A900003F001030393039B03F0A8FE1F200CB067
:103AA000BDE8104003F0E0BE364C3948D4F8E030B1
:103AB00043F08003C4F8E030D4F8E03003F0800332
:103AC0000493049BD4F8E03043F00203C4F8E030E0
:103AD000D4F8E03003F002030593059BFFF756FF8F
:103AE000D4F8E8300022212043F480031146C4F8C2
:103AF000E830D4F8E83003F480030693069BD4F84A
:103B0000D83043F00103C4F8D830D4F8D83003F0EB
:103B100001030793079B03F069FE21200CB0BDE869
:103B2000104003F0A1BE1B48FFF730FF154B0022E9
:103B30004820D3F8E840114644F40004C3F8E840B4
:103B4000D3F8E84004F400040894089CD3F8D84063
:103B500044F00104C3F8D840D3F8D83003F001038F
:103B60000993099B03F042FE48200CB0BDE81040C9
:103B700003F07ABE0054004000580040005C004052
:103B8000001C00580044025858A60124D0A3012468
:103B9000A8A4012480A501242DE9F0431A4B87B085
:103BA00000254FF010099E46EC46184BFF22E046D8
:103BB00067461A700EF118060EF13004CDE9005573
:103BC000CDE90255ADF80090BCE80F00CDE90455F1
:103BD000AEE80F009CE803000095ADF800908EE879
:103BE0000300B8E80F000FC69CE803000095ADF88D
:103BF000009086E803000FCF0FC49CE8030084E820
:103C0000030007B0BDE8F08304000024CCA3012426
:103C100010B5EFF3108472B6084B1A78120602D56D
:103C200004B962B610BD1B78D82205485BB202FB0E
:103C30000300143004F004FBF2E700BFCCA301241E
:103C4000D0A30124014805F0F3BE00BF5CA4012409
:103C5000014805F0EDBE00BF34A50124014805F080
:103C6000E7BE00BF0CA601242DE9F0430F68D8245D
:103C70003F4D85B007FB04F4032F05EB04030360FD
:103C800040DCCB680E46012B3CD84DD04FF0D80815
:103C9000B646DFF8FC9008FB0758BEE80F00C446A4
:103CA000ACE80F00DEF800300DF1100ECCF800305B
:103CB000D8F808C099E80F000EE90F000EEB870353
:103CC000BCF1010F53F8103CC8F88C3031D0BCF176
:103CD000020F42D0BCF1000F35D0317C8C34D82398
:103CE000002201202C4403FB07534900C3E92602AC
:103CF000C3F894102046C3E92822C3E92A2205F01C
:103D000089FC18B1012005B0BDE8F08301462046CA
:103D100005F09AFE0028F5D10146204605F0BEFECA
:103D2000003818BF0120EEE70B7C103B672BADD9A4
:103D3000E8E702F001F90F4B98420CBF0E4B0F4B16
:103D4000C8F89030C9E702F0F7F80A4B98420CBF68
:103D50000B4B0C4BC8F89030BFE702F0EDF8054B69
:103D600098420CBF084B094BC8F89030B5E700BF2C
:103D7000D0A30124000E27072D0FB0303211D02020
:103D80005F4390608A62E030200BA0101A09801017
:103D9000F45F01082DE9F041D0F8008082B00D46B3
:103DA00017461E4608F18C04204605F049FE2028DF
:103DB000FAD1D8F80C3073B96D002046089C334610
:103DC0003A46A9B2009405F07BFC003818BF0120E8
:103DD00002B0BDE8F081089B32463946204605F026
:103DE00043FDF2E7044B10221A7483F8E82083F8AD
:103DF000C02183F898227047D0A3012430B5002356
:103E000095B04FF48071062204460B9306921393EB
:103E1000CDE90C13CDE90E33CDE9113302F08EF864
:103E200007282BD004F1100541F2883206A9284654
:103E300006F086FD28B10123184684F85C3015B0E1
:103E400030BD0222022306A92846CDE90023102214
:103E50000123CDE9022300224FF48003CDE904239E
:103E600005224FF0807306926A460F9341F2883321
:103E700006F0D2FE0028DED115B030BD03230120AC
:103E800084F85C3015B030BD70B50023A4B04FF09D
:103E900080724FF480750446ADF806300D93CDE97D
:103EA00010320122CDE90E53CDE91223CDE91433AE
:103EB000002943D0F02300F1100508AEADF806301C
:103EC000C02341F2883231462846089306F038FD77
:103ED00028B10123184684F85C3024B070BD41F24B
:103EE00088320DF10601284606F094FD03460028AD
:103EF000EFD105224FF480711E93284616924FF0A1
:103F000080721B9321931F9202AA9FED1F7BCDE924
:103F10001C13CDE922338DED027B9FED1D7B41F219
:103F2000883316A98DED047B9FED1B7B8DED067B01
:103F300006F072FE0028CCD124B070BD00F110054F
:103F400008AE612341F2883231462846089306F0D4
:103F5000F7FC0028BDD141F288320DF10601284658
:103F600006F0D6FD0028B4D1BDF80630204623F077
:103F7000780343F04003ADF80630FFF73FFF002819
:103F80009ED0A6E7AFF30080000000000100000013
:103F900010000000010000000000000000004000D0
:103FA0002DE9F04F00234FF4807501264FF0807803
:103FB00004462DED028BABB08DF80730139321939F
:103FC000299314950E96CDF85C80CDE91533CDE993
:103FD0001863CDE91A33CDE92253CDE92433CDE975
:103FE000273306231C9301F0A9FF072808D004F10A
:103FF000100741F288321CA9384606F0A1FC40B1F6
:104000000123184684F85C302BB0BDEC028BBDE870
:10401000F08F4FF0020A4FF0020B4FF0050941F20A
:10402000883308AA1CA93846CDF89480CDF8709042
:104030009FED2D8BCDE908AB4FF0000A4FF4800BBC
:104040008DED0A8BCDE90CAB06F0E6FD0028D7D14B
:1040500041F2883238460EA906F072FC0028CFD112
:10406000402341F288320DF1070138468DF80730C0
:1040700006F0D0FC0028C3D141F288330EA902AA71
:104080003846CDF83890CDF85C809FED197B8DEDEA
:10409000048BCDE906AB8DED027B06F0BDFD03463A
:1040A0000028ADD1CDF870904FF00109CDF8948083
:1040B0004FF00008219308AA29931CA9384622959D
:1040C000CDE92333CDE9273341F288338DED0A8BD7
:1040D000CDE90CABCDE9088906F09EFD002893D010
:1040E000304684F85C608FE710000000010000009B
:1040F00040000000400000002DE9F043624CA3B0F6
:104100000D46046001F01AFF072800F0A980286816
:1041100023466968AA6807C31E46AB8926F8043B94
:104120003046257B677B06F0EDFBE0B9574B012D50
:104130004FF00108E061236114BF4FF480134FF486
:104140000003C4E9058893FAA3F3B3FA83F34FF4A9
:104150008079013BC4F82490C4E90B003046236207
:1041600006F064FB38B10122134684F85C2018463F
:1041700023B0BDE8F08366230B90139041F28832A0
:1041800006A90693CDE90C90CDE90E00CDE911000A
:10419000304606F0D5FB0028E5D1992341F288325C
:1041A00006A93046069306F0CBFB0028DBD1052399
:1041B0001C9019906A4614934FF08073219014A9B3
:1041C0001D9341F288339FED2A7BCDE91A90CDE90A
:1041D0001F008DED007B9FED287B30468DED027B2F
:1041E0009FED277B8DED047B06F016FD0028BAD1EC
:1041F00029462046FFF748FE0028B4D12046FFF7A5
:10420000CFFE03460028AED1002FB0D11893304620
:104210000027002606AA14A9CDF86890CDE91F331F
:10422000EB2314934FF440631B934FF40053179305
:104230004FF440431C93A0231693062319934FF089
:10424000805321934FF04073CDE906671D9306F02C
:104250005BFD034600288AD0434684F85C8086E7ED
:1042600001230322184684F85C2023B0BDE8F083C4
:10427000000000000100000010000000010000002C
:10428000000000000000400030A701240050005250
:104290002DE9F04F8FB0414B0024026800AF9A42E5
:1042A0007C63C7E90944C7E90B4403D03C37BD46EA
:1042B000BDE8F08F3A4B40F609213A48EB46D3F877
:1042C000D42007F11C0607F1220A4FF0020942F43C
:1042D00080424FF00308C3F8D420D3F8D42002F46E
:1042E0008042BA60BA68D3F8E02042F04002C3F8D6
:1042F000E020D3F8E02002F04002FA60FA68D3F838
:10430000E02042F02002C3F8E020D3F8E02002F0E1
:1043100020023A613A69D3F8E02042F01002C3F873
:10432000E020D3F8E02002F010027A617A69D3F835
:10433000E02042F00202C3F8E020D3F8E030F86158
:1043400003F002033984BB61174B7B60BB697B6858
:1043500053F8040F7B6002F01DFB7B68054618686C
:1043600002F020FB16F8013B786207F12401284691
:10437000C7F830807B63C7E90A9404F0B3FA564566
:10438000E5D100225C20114603F030FA5C2003F0F6
:104390006BFA3C37DD46BD46BDE8F08F0050005259
:1043A000004402580A0A09098CA70124114B02682B
:1043B0009A4200D07047104A70B5D2F8D4300F4CF2
:1043C00023F4804304F11806C2F8D43054F8040FE3
:1043D00002F0E0FA0546206802F0E4FA01462846B9
:1043E00004F0C0FBB442F1D15C20BDE8704003F0A2
:1043F00049BA00BF00500052004402588CA7012463
:10440000014806F00DBD00BF40A70124084B1A1D4E
:10441000981D03F1080110B49C1C9A6603F10A026E
:10442000C3E91834C3E91B015DF8044B5A677047B0
:1044300030A7012438B5036871B9026A00F1280574
:1044400000F5AC74012A0CBF002140218BBB1D4B31
:104450005722C0F858310DE0426A00F1C00500F55E
:10446000E874012A0CBF00214021EBB1164B5A22FF
:10447000C0F8D03100232046C4E901214FF4805216
:104480004FF48061636262614FF48042C4E903319A
:104490004FF48073C4E906234FF40033236203F022
:1044A00057FB58B1FFBEFEE7084B5822C0F8D03189
:1044B000E0E7074B5922C0F85831DBE7C5E9204453
:1044C000A56338BD10000240700002402800024081
:1044D000580002402DE9F043821D05468BB0031DB4
:1044E00005F10A010830CDE9052305F10C02AB699D
:1044F000CDE907010992002B3DD0EB69B3FA83F8AF
:104500004FEA58180123022205AE0AAF4FF0060900
:104510000393CDE9012356F8044B2B79227893427B
:1045200016D02B68F3B1012B02D1F2B10A23049308
:10453000204602F037FA03462046009302F02AFA9A
:10454000694604F0CFF9BE42E5D10BB0BDE8F08377
:10455000697963789942E4D1B8F1000FF3D02B6800
:10456000002BE0D1CDF81090E2E76378022B14BF66
:104570000A230823DBE74FF00108C3E7534A036827
:10458000934230B505468BB055D02032934252D07D
:104590004F4A934204D02032934201D00BB030BD39
:1045A0004C4C4D48D4F8E03043F00103C4F8E030FF
:1045B000D4F8E03003F001030593059BD4F8E03014
:1045C00043F00803C4F8E030D4F8E03003F0080307
:1045D0000693069BD4F8E03043F04003C4F8E03083
:1045E000D4F8E03003F040030793079BD4F8F03091
:1045F00043F40003C4F8F030D4F8F03003F40003BF
:104600000893089BFFF766FFD4F8D830296843F079
:1046100001032F4A3048C4F8D830891AD4F8D8306A
:1046200018BF012103F001030993099B0BB0BDE8FA
:104630003040FFF7FFBE274C2848D4F8E03043F065
:104640000103C4F8E030D4F8E03003F00103009334
:10465000009BD4F8E03043F01003C4F8E030D4F805
:10466000E03003F010030193019BD4F8E03043F0F5
:104670004003C4F8E030D4F8E03003F04003029384
:10468000029BD4F8F03043F48003C4F8F030D4F83F
:10469000F03003F480030393039BFFF71BFFD4F870
:1046A000D830296843F00103084A0C48C4F8D830D0
:1046B000891AD4F8D83018BF012103F001030493FC
:1046C000049B0BB0BDE83040FFF7B4BE0458014076
:1046D000045C01400044025804AA0124A8A7012454
:1046E000014803F0ADBD00BF00A90124014803F05B
:1046F000A7BD00BF78A90124014803F0A1BD00BFF8
:104700005CAB0124014803F09BBD00BFD4AB012486
:104710001A4A0368934210B40BD02032934208D057
:10472000174A934216D02032934213D05DF8044BBF
:104730007047144B0022D3F85442C3F85822002C7F
:10474000F4D0D3F84802D3E9931223465DF8044B22
:10475000520818470B4B0022D3F8B044C3F8B424D6
:10476000002CE3D0D3F8AC24D3F8A814D3F8A404D5
:10477000520823465DF8044B184700BF0458014017
:10478000045C0140A8A70124184A0368934210B4AE
:104790000BD02032934208D0154A934217D02032D2
:1047A000934214D05DF8044B7047124BD3E9942424
:1047B0005208C3F85822002CF4D0D3E992012346C2
:1047C00001EB820100EB82005DF8044B1847094BB6
:1047D000D3F8AC24D3F8B0445208C3F8B424002C66
:1047E000E0D0D3F8A814D3F8A404E8E704580140B3
:1047F000045C0140A8A701242DE9F04F0C684FF498
:104800001776754F87B004FB06F6012C07EB060AF6
:10481000C0F800A000F3A0800D468E464FF00008BF
:10482000D44669A3D3E9002369A1D1E90001CDE908
:10483000022306ABCAF8508203EB8403CDE90401DE
:1048400053F810BC53F8083CCAE992880193BEE8BB
:104850000F00ACE80F00BEE80F00ACE80F00019BB2
:104860009EE80300CAF828B0CAF8C0308CE80300FC
:104870002B69042B0CD8DFE803F0737D87910300CC
:104880004FF41773554A03FB04739A64C3F8E0208E
:10489000AA692B6A002A43D0002B4FF4177308BF74
:1048A000022203FB047318BF0322DA6201221A6397
:1048B000EA696B6A002A40D1191E4FF4177318BFBA
:1048C000012103FB0473C3E931126B69022B05D884
:1048D000434A12F80380434A52F823904FF4177367
:1048E00006F128004246494603FB0474002338447D
:1048F00063646363E365C4F8DC30C4F8CC30C4F8A7
:10490000F430C4E90F33C4E91533C4E93533C4E9DD
:104910003B33022308F026FB002849D0FFBEFEE708
:10492000191E4FF4177318BF012103FB0473C3E969
:104930000B12EA696B6A002ABED0002B4FF4177382
:1049400008BF022203FB047318BF0322C3F8C4206C
:104950000122C3F8C820B8E7012007B0BDE8F08FF6
:104960004FF417734FF4FA5203FB04739A64C3F8BD
:10497000E0208DE74FF417734FF47A5203FB047372
:104980009A64C3F8E02083E74FF417734FF4FA42B8
:1049900003FB04739A64C3F8E02079E74FF41773BC
:1049A0004BF6803203FB04739A64C3F8E0206FE790
:1049B00006F1C000022342464946384408F0D2FAC4
:1049C0000028CAD0FFBEFEE704580140045C014045
:1049D00024580140245C0140A8A70124007701006D
:1049E00044610108486101080068704770B50468B7
:1049F00082B015460E46C4F85032C4E99212069AA7
:104A0000C4F85422A269012A26D0626A012A9AB205
:104A100011D0294604F1C000019208F05FFB236A1F
:104A2000019A012B10D0294604F1280008F056FB0A
:104A3000002002B070BD04F1C000019208F0E0FB5C
:104A4000236A019A012BEED1314604F1280008F0C7
:104A5000D7FB002002B070BD226A012A9AB211D0A1
:104A6000294604F12800019208F038FB636A019A94
:104A7000012B10D0294604F1C00008F02FFB0020C4
:104A800002B070BD04F12800019208F0B9FB636A1E
:104A9000019A012BEED1314604F1C00008F0B0FBC1
:104AA000002002B070BD00BF03681B69042B05D84D
:104AB000044A02EB830393ED000A70479FED020A5C
:104AC000704700BF5461010800803B470368D3F87A
:104AD000580270471F4BC1680268F0B5D3F88C507C
:104AE00083B00369ADB24D1BA2B1AB4212D00446F4
:104AF000866811D2F018E91ACDE9001000F0B4FF71
:104B00000023DDE90010D4E90062B047E3682561C5
:104B1000AB421BD003B0F0BDF018C91ACDE90001BB
:104B200000F0A2FF0023DDE90001D4E90072B847DC
:104B30003046294600F098FF002330466268294637
:104B40002668B047E3682561AB42E3D100232361C7
:104B500003B0F0BD000002402DE9F84F04460F46B7
:104B600090461E4600F13405284608F0D5FE202860
:104B7000FAD14FF480630020C4F8D030C4F8483133
:104B80004FF44033C4F8CC00C4F8E030C4F85831D6
:104B90004E4BC4F8DC00C4F8C03003F57A73C4F897
:104BA000E400C4F838314023C4F8C800C4F84031E8
:104BB000E369C4F84401C4F85401C4F85C01C4E9D1
:104BC0003500C4E95300072B0BD8DFE803F061532D
:104BD0005A373E454C045123C4F8C4305223C4F81C
:104BE0003C3104F59C79484602F0B2FF08B1FFBEA3
:104BF000FEE7C4F8A890C4F87051EFF3108972B6BC
:104C0000DFF8D0B094F91C30DFF8CCA08BF800307E
:104C10000A9B2F4CCAF800300B9B23600EB118463C
:104C2000B0471FFA88F23946284608F05FFCB0BB4F
:104C3000B9F1000F00D162B6BDE8F88F3F23C4F888
:104C4000C4304023C4F83C31CBE74123C4F8C4301E
:104C50004223C4F83C31C4E74723C4F8C430482396
:104C6000C4F83C31BDE74F23C4F8C4305023C4F826
:104C70003C31B6E72B23C4F8C4302C23C4F83C31B4
:104C8000AFE72D23C4F8C4302E23C4F83C31A8E785
:104C90002923C4F8C4302A23C4F83C31A1E7FF23F8
:104CA0008BF800300023CAF8003023600A9B3BB128
:104CB0000B98012198470120B9F1000FBCD1BAE748
:104CC0000120B9F1000FB7D1B5E700BF880002405D
:104CD00098BB012494BB012490BB01242DE9F84F1B
:104CE00004460F4690461E4600F13405284608F05B
:104CF00013FE2028FAD14FF480630020C4F8D0308E
:104D0000C4F848314FF44033C4F8CC00C4F8E03064
:104D1000C4F858314E4BC4F8DC00C4F8C03003F579
:104D20007A73C4F8E400C4F838314023C4F8C800EA
:104D3000C4F84031E369C4F84401C4F85401C4F82C
:104D40005C01C4E93500C4E95300072B0BD8DFE848
:104D500003F061535A373E454C045123C4F8C43024
:104D60005223C4F83C3104F1C009484602F0F0FE79
:104D700008B1FFBEFEE7C4F8AC90C4F8F850EFF3FA
:104D8000108972B6DFF8D0B094F91C30DFF8CCA0EF
:104D90008BF800300A9B2F4CCAF800300B9B236025
:104DA0000EB11846B0471FFA88F23946284608F077
:104DB000EFFBB0BBB9F1000F00D162B6BDE8F88FD0
:104DC0003F23C4F8C4304023C4F83C31CBE741232F
:104DD000C4F8C4304223C4F83C31C4E74723C4F8C4
:104DE000C4304823C4F83C31BDE74F23C4F8C43075
:104DF0005023C4F83C31B6E72B23C4F8C4302C232D
:104E0000C4F83C31AFE72D23C4F8C4302E23C4F8D6
:104E10003C31A8E72923C4F8C4302A23C4F83C3124
:104E2000A1E7FF238BF800300023CAF8003023608D
:104E30000A9B3BB10B98012198470120B9F1000F63
:104E4000BCD1BAE70120B9F1000FB7D1B5E700BF77
:104E50008800024098BB012494BB012490BB01242C
:104E60002DE9F0410D4682B0EFF3108772B60029AC
:104E700048D1FF23254A264C237013682BB100200C
:104E800029461060234A1068984723781B0625D5C9
:104E9000DFF888800025204E444605E001351C34AB
:104EA00006F5D876092D19D0A369012B1BD0002B4C
:104EB000F4D1216830460029F0D063690193236959
:104EC0000093E3682289FFF709FF0028E6D1C5EBCC
:104ED000C50508EB850348F82500586007B962B698
:104EE00002B0BDE8F08161680029D7D0636930461F
:104EF000019323690093E3682289FFF72DFE0028C0
:104F0000CCD1E4E70AF004F8B3E700BF90BB01247A
:104F100094BB012498BB012460AC01244C00002404
:104F2000F0B5002387B0022204460493CDE90223A2
:104F3000027EC3690B2A4FEA430523D1A27E0B2AC6
:104F400002D1002007B0F0BD48496B1C484851F819
:104F50002330457801781878E67E884269D082420D
:104F600077D0D87803F1030C81426ED0824278D09A
:104F7000987903F1060C88426FD0824233D0012029
:104F800007B0F0BD394B3A4853F8253001784678E0
:104F9000187894F819C081423DD0824241D0D87827
:104FA00003F1030E814240D082424AD0987903F146
:104FB000060E884241D08242E1D1DB796345DED1E1
:104FC000734604F118069B783046059301F0E2FC25
:104FD000034630461E4601F0E5FC01A9019030462B
:104FE00003F080FCAAE7DB79B342C8D163461A34E8
:104FF0009B782046059301F0CDFC034620461C46D5
:1050000001F0D0FC034601A92046019303F06AFC9D
:10501000002007B0F0BD93F801E0B645BFD0824252
:10502000BDD158786045BAD1CBE71F79B742BBD123
:10503000BCE75F78AF4292D193E7D979B142BAD158
:105040009DE718796045B1D1BAE71F79AF428DD19C
:105050008EE75878B04284D1C9E7D979A9428CD17A
:105060008DE71879B04283D1C0E700BF6401002406
:10507000600100247E4A03689342F0B58FB000F0CF
:10508000E380A2F54C42934200F0E08002F580629A
:10509000934200F0DD8002F58062934200F0DA80F6
:1050A00002F58062934200F0D98002F544429342B7
:1050B00000F0D280A2F51C42934200F0D18002F5AC
:1050C0008062934200F0CE806A4A934240F0CC80E6
:1050D0000826694D4FF4D87404FB0654A07E01F0F5
:1050E00069FC207E01F066FCE369082B13D8DFE839
:1050F00003F03B49576573818F9D05005F4BD3F8E3
:10510000F42042F00802C3F8F420D3F8F43003F09E
:1051100008030893089B2046FFF702FF012801D1EE
:10512000FFBEFEE74FF4D8740EAA554F0DF1240CC4
:1051300004FB0654E36902EB43050FCFACE80F0014
:105140003B680022ACF80030114635F9140C02F02F
:105150004DFBE3690EAA02EB430333F9140C0FB0C5
:10516000BDE8F04002F080BB444BD3F8F02042F0A1
:105170001002C3F8F020D3F8F03003F010030093CE
:10518000009BC8E73D4BD3F8E82042F40032C3F857
:10519000E820D3F8E83003F400330193019BBAE729
:1051A000364BD3F8E82042F48022C3F8E820D3F845
:1051B000E83003F480230293029BACE72F4BD3F833
:1051C000E82042F40022C3F8E820D3F8E83003F4E2
:1051D00000230393039B9EE7284BD3F8E82042F477
:1051E0008012C3F8E820D3F8E83003F48013049366
:1051F000049B90E7214BD3F8F02042F02002C3F843
:10520000F020D3F8F03003F020030593059B82E7EC
:105210001A4BD3F8E82042F08042C3F8E820D3F8D4
:10522000E83003F080430693069B74E7134BD3F8F2
:10523000E82042F00042C3F8E820D3F8E83003F059
:1052400000430793079B66E7002642E7012640E7F5
:1052500002263EE703263CE705263AE7042638E720
:10526000062636E7072634E700239B7EFFDE00BFD5
:1052700000100140000C005860AC012400440258AA
:10528000046001082DE9F04F91B0002301223F494D
:105290000DF1240A09938B4601F11C09CAF8143058
:1052A00001F13808CDF800A001F15407CDF804A0B1
:1052B00001F17006CDF808A001F18C05CDF80CA025
:1052C00001F1A804CDF810A001F1C40ECDF814A08E
:1052D00001F1E00CCAE90133CAE903330F92FF225E
:1052E0002B4BCDE906AA1A70BAE80F00ABE80F0005
:1052F0009AE80700009B8BE807009B46BBE80F007D
:10530000A9E80F009AE80700019B89E80700994681
:10531000B9E80F00A8E80F009AE80700029B88E8A8
:1053200007009846B8E80F000FC79AE80700039BEC
:1053300087E807001F460FCF0FC69AE80700049BB7
:1053400086E807001E460FCE0FC59AE80700059BAA
:1053500085E807001D460FCD0FC49AE80700069B9D
:1053600084E807001C460FCCAEE80F00079B9AE8C4
:1053700007001C468EE807000FCCACE80F009AE847
:1053800007008CE8070011B0BDE8F08F4C00002446
:1053900094BB012410B5094C04F1340008F0CAF99B
:1053A000237D1BB1636BDB69DB0600D410BD204697
:1053B000FFF790FB636B10221A6210BD60AC0124F2
:1053C00010B50B4C04F5F27008F0B4F994F8C43140
:1053D00023B1D4F8E431DB69DB0600D410BD04F559
:1053E000D870FFF777FBD4F8E43110221A6210BDB1
:1053F00060AC012410B50B4C04F5657008F09AF907
:1054000094F8743323B1D4F89433DB69DB0600D409
:1054100010BD04F55870FFF75DFBD4F894331022EB
:105420001A6210BD60AC012410B50B4C04F244505C
:1054300008F080F994F8243523B1D4F84435DB69B9
:10544000DB0600D410BD04F5A260FFF743FBD4F8DF
:10545000443510221A6210BD60AC012410B50B4C0B
:1054600004F2F46008F066F994F8D43623B1D4F865
:10547000F436DB69DB0600D410BD04F5D860FFF715
:1054800029FBD4F8F43610221A6210BD60AC012456
:1054900010B50B4C04F6A40008F04CF994F88438CD
:1054A00023B1D4F8A438DB69DB0600D410BD04F5C1
:1054B0000760FFF70FFBD4F8A43810221A6210BD62
:1054C00060AC012410B50B4C04F6542008F032F9FE
:1054D00094F8343A23B1D4F8543ADB69DB0600D4AB
:1054E00010BD04F52260FFF7F5FAD4F8543A102203
:1054F0001A6210BD60AC012410B50B4C04F60440D8
:1055000008F018F994F8E43B23B1D4F8043CDB69C3
:10551000DB0600D410BD04F53D60FFF7DBFAD4F8DC
:10552000043C10221A6210BD60AC012410B50B4C73
:1055300004F6B45008F0FEF894F8943D23B1D4F882
:10554000B43DDB69DB0600D410BD04F55860FFF7FD
:10555000C1FAD4F8B43D10221A6210BD60AC012427
:1055600010B5EFF3108472B6084B1A78120602D504
:1055700004B962B610BD1B784FF4D87204485BB210
:1055800002FB0300C03002F05BFEF1E794BB012494
:1055900060AC012410B5EFF3108472B6094B1A7891
:1055A000120602D504B962B610BD1B784FF4D8724A
:1055B00005485BB202FB030000F59C7002F040FE60
:1055C000F0E700BF94BB012460AC01240021FFF789
:1055D00047BC00BF214A036893422BD0A2F54C423E
:1055E000934229D002F58062934227D002F580626F
:1055F000934225D002F58062934223D002F54442C3
:10560000934221D0A2F51C4293421FD002F5806242
:1056100093421DD0124A93421CD108224FF4D871F4
:10562000104B01FB0233197D11B11846FFF752BA36
:10563000FFF716BC0022F1E70122EFE70222EDE7B7
:105640000322EBE70422E9E70522E7E70622E5E784
:105650000722E3E700231B7DFFDE00BF00100140AF
:10566000000C005860AC0124204A0368934229D002
:10567000A2F54C42934227D002F58062934225D096
:1056800002F58062934223D002F58062934221D0DA
:1056900002F5444293421FD0A2F51C4293421DD012
:1056A00002F5806293421BD0114A93421AD108231B
:1056B00010484FF4D87202FB0300037D03B9704712
:1056C000FFF708BA0023F3E70123F1E70223EFE72E
:1056D0000323EDE70423EBE70523E9E70623E7E7E8
:1056E0000723E5E700231B7DFFDE00BF001001401C
:1056F000000C005860AC01240121FFF7B1BB00BFD2
:105700002DE9F0414F684FF4D876DFF8C0808E461F
:1057100007FB06F60C46082F08EB0605056005F1A9
:10572000180CBEE80F00ACE80F009EE807008CE8FC
:10573000070002D86B6A022B02D90120BDE8F08174
:105740002A6A032AF9D8A96A0229F6D8E86A02283F
:10575000F3D80131DFF878C0343689005CF827705F
:1057600046446F63A469A9641549AC6351F82330BA
:105770006B64144B53F82230134A2B64002352F805
:10578000201001223046EB65E963C5E91333C5E912
:10579000153209F0BDFB0028CFD10146304609F093
:1057A0000FFC0028C9D10146304609F057FC0028FB
:1057B000C3D1304609F0E6FB0028BED12875BDE70D
:1057C0008C61010898610108A861010860AC01249E
:1057D00068610108534B0122002047F6122130B4C2
:1057E000C3E97420C3E97721C3E9E020C3E9E321D9
:1057F0001A62DA6258621963C3F83025C3F83405B7
:10580000C3F83C25C3F84015C3F8E026C3F8E40606
:10581000C3F8EC26C3F8F016C3F89028C3F8940830
:10582000C3F89C28C3F8A018C3F8402AC3F8440A58
:10583000C3F84C2AC3F8501AC3F8F02BC3F8F40B82
:10584000C3F8FC2BC3F8001CC3F8A40D3648C3F8FA
:10585000A02DC3F8AC2DC3F8B01D0288837833495E
:105860000068334CCA804FEA104C0B723149E28019
:105870002372A1F80320A4F8032063714B712E4C0E
:10588000CA800B722D492E4DE2802372A1F80320AD
:10589000A4F8032063714B712A4CCA800B722A4909
:1058A000EA8008802B7281F802C0E2802372A1F89E
:1058B00003204B71CA800B722449A1F803204B715D
:1058C000CA800B722249A1F803204B71CA800B7267
:1058D0002049088081F802C0A1F803204B71CA80DA
:1058E0000B721D49088081F802C0A1F803204B719A
:1058F000CA800B721949088081F802C01848A1F8C3
:1059000003204B71CA800B721649A0F80320437123
:10591000C2800372A1F803204B71CA800B7230BCA5
:10592000704700BF60AC012460010024E80100243E
:105930000C02002400020024240200241802002487
:10594000F4010024D0010024C0BB01243002002453
:10595000DC0100249CBB0124B4BB0124A8BB0124AE
:1059600054010024480100243E4B00220B20114624
:1059700010B5D3F8D84082B044F00104C3F8D84041
:10598000D3F8D84004F001040094009CD3F8D84028
:1059900044F00204C3F8D840D3F8D83003F002032F
:1059A0000193019B01F022FF0B2001F05DFF00221B
:1059B0000C20114601F01AFF0C2001F055FF0022C7
:1059C0000D20114601F012FF0D2001F04DFF0022C5
:1059D0000E20114601F00AFF0E2001F045FF0022C3
:1059E0000F20114601F002FF0F2001F03DFF0022C1
:1059F0001020114601F0FAFE102001F035FF0022C0
:105A00003C20114601F0F2FE3C2001F02DFF002267
:105A10001120114601F0EAFE112001F025FF0022BD
:105A20003820114601F0E2FE382001F01DFF00226F
:105A30003920114601F0DAFE392001F015FF00226D
:105A40003A20114601F0D2FE3A2001F00DFF00226B
:105A50003B20114601F0CAFE3B2002B0BDE81040D9
:105A600001F002BF0044025820F01F002031BFF3B4
:105A70004F8F002907DD064A0144C2F85C0220303E
:105A80000B1A002BF9DCBFF34F8FBFF36F8F7047FA
:105A900000ED00E0704700BF08B501F08BF8BDE8ED
:105AA000084001F06BBF00BF064808B503680BB1A2
:105AB00003F02AF9044803681BB1BDE8084004F06C
:105AC000D1B808BDE8E50124E0DF0124064808B5A7
:105AD00003680BB103F018F9044803681BB1BDE873
